:100000000C9435000C945D000C945D000C945D0024
:100010000C945D000C945D000C945D000C945D00EC
:100020000C945D000C945D000C945D000C945D00DC
:100030000C945D000C945D000C945D000C945D00CC
:100040000C94F9010C945D000C9469020C94430229
:100050000C945D000C945D000C945D000C945D00AC
:100060000C945D000C945D00960511241FBECFEF2B
:10007000D8E0DEBFCDBF11E0A0E0B1E0E8E3FCE0F6
:1000800002C005900D92A232B107D9F724E0A2E296
:10009000B1E001C01D92AE30B207E1F710E0C5E358
:1000A000D0E004C02197FE010E940F06C433D1079F
:1000B000C9F70E949B020C941A060C9400008E3023
:1000C00008F08E508770806480937C0080917A0065
:1000D000806480937A0080917A0086FDFCCF8091C5
:1000E00078002091790090E0922B08953FB7F89422
:1000F00080916D0390916E03A0916F03B091700396
:1001000026B5A89B05C02F3F19F00196A11DB11D72
:100110003FBFBA2FA92F982F8827820F911DA11DAD
:10012000B11DBC01CD0142E0660F771F881F991FEA
:100130004A95D1F708958F929F92AF92BF92CF9236
:10014000DF92EF92FF926B017C010E9476004B01DF
:100150005C01C114D104E104F104F1F00E947600C5
:10016000DC01CB0188199909AA09BB09883E934093
:10017000A105B10570F321E0C21AD108E108F10828
:1001800088EE880E83E0981EA11CB11CC114D10416
:10019000E104F10419F7DDCFFF90EF90DF90CF90ED
:1001A000BF90AF909F908F900895CF92DF92EF9283
:1001B000FF920F931F93CF93DF936C017A018B0112
:1001C000C0E0D0E0CE15DF0581F0D8016D918D0142
:1001D000D601ED91FC910190F081E02DC6010995C9
:1001E000892B11F02196EECF7E01C701DF91CF91CF
:1001F0001F910F91FF90EF90DF90CF900895089599
:1002000080E090E00895FC01538D448D252F30E06F
:10021000842F90E0821B930B541710F0CF96089513
:1002200001970895FC01918D828D981761F0828D60
:10023000DF01A80FB11D5D968C91928D9F5F9F731A
:10024000928F90E008958FEF9FEF0895FC01918DBC
:10025000828D981731F0828DE80FF11D858D90E029
:1002600008958FEF9FEF0895FC01918D228D892FC6
:1002700090E0805C9F4F821B91098F7399270895AE
:1002800081E793E00E94340121E0892B09F420E00A
:10029000822F0895FC01848DDF01A80FB11DA35AA0
:1002A000BF4F2C91848D90E001968F739927848F96
:1002B000A689B7892C93A089B1898C9183708064B9
:1002C0008C93938D848D981306C00288F389E02D5A
:1002D00080818F7D80830895EF92FF920F931F930B
:1002E000CF93DF93EC0181E0888F9B8D8C8D9813E9
:1002F00005C0E889F989808185FD26C0F62E0B8D21
:1003000010E00F5F1F4F0F731127E02E8C8DE81246
:100310000CC00FB607FCFACFE889F989808185FF08
:10032000F5CFCE010E944A01F1CF8B8DFE01E80F7F
:10033000F11DE35AFF4FF0829FB7F8940B8FEA89C3
:10034000FB89808180620AC09FB7F894EE89FF899B
:100350006083E889F98980818370806480839FBF8E
:1003600081E090E0DF91CF911F910F91FF90EF908E
:100370000895CF93DF93EC01888D8823C9F0EA8933
:10038000FB89808185FD05C0A889B9898C9186FD8E
:100390000FC00FB607FCF5CF808185FFF2CFA8898B
:1003A000B9898C9185FFEDCFCE010E944A01E7CF3C
:1003B000DF91CF91089580E090E0892B29F00E9491
:1003C000400181110C9400000895009769F0FC0130
:1003D00001900020E9F73197AF01481B590BBC0190
:1003E00081E793E00C94D50080E090E008950E94AE
:1003F00015061F920F920FB60F9211242F933F9361
:100400008F939F93AF93BF938091690390916A03F9
:10041000A0916B03B0916C033091680323E0230F2C
:100420002D3720F40196A11DB11D05C026E8230F2C
:100430000296A11DB11D20936803809369039093D8
:100440006A03A0936B03B0936C0380916D0390914A
:100450006E03A0916F03B09170030196A11DB11DB1
:1004600080936D0390936E03A0936F03B09370031A
:10047000BF91AF919F918F913F912F910F900FBEA0
:100480000F901F9018951F920F920FB60F92112484
:100490002F933F934F935F936F937F938F939F938C
:1004A000AF93BF93EF93FF9381E793E00E944A01DC
:1004B000FF91EF91BF91AF919F918F917F916F913C
:1004C0005F914F913F912F910F900FBE0F901F9012
:1004D00018951F920F920FB60F9211242F938F939E
:1004E0009F93EF93FF93E0918103F09182038081CA
:1004F000E0918703F091880382FD12C09081809182
:100500008A038F5F8F7320918B03821751F0E091E4
:100510008A03F0E0EF58FC4F958F80938A0301C067
:100520008081FF91EF919F918F912F910F900FBE3E
:100530000F901F901895CF93DF93CDB7DEB7A1979B
:100540000FB6F894DEBF0FBECDBF789484B582603D
:1005500084BD84B5816084BD85B5826085BD85B567
:10056000816085BD80916E00816080936E001092E5
:100570008100809181008260809381008091810060
:1005800081608093810080918000816080938000F1
:100590008091B10084608093B1008091B00081604F
:1005A0008093B00080917A00846080937A0080917B
:1005B0007A00826080937A0080917A0081608093D3
:1005C0007A0080917A00806880937A001092C1004E
:1005D0008FEF84B987B98AB9E0918103F0918203E2
:1005E00082E08083E0917D03F0917E031082E091B0
:1005F0007F03F09180038FEC808310928903E09158
:100600008503F091860386E08083E0918303F09177
:100610008403808180618083E0918303F09184036F
:10062000808188608083E0918303F09184038081DE
:1006300080688083E0918303F091840380818F7DC3
:10064000808383E191E00E94E50184E10E945F00E4
:10065000883C910548F0811522E0920738F08C39EA
:10066000934030F023E005C020E003C021E001C04A
:1006700022E0122F110F110F85E10E945F00883CCC
:10068000910548F0811552E0950738F08C39934078
:1006900030F023E005C020E003C021E001C022E0EB
:1006A000210F2093000130E040E050E019A28E01BC
:1006B0000F5D1F4F8AE0C82ED12CE12CF12CCA010E
:1006C000B901A70196010E94D305605DF80162930C
:1006D0008F01211531054105510589F7CF010E9490
:1006E000E5018EE191E00E94E50143EA52E083EEEC
:1006F00091E0E3E2F1E02FEF2783DC015E962C939B
:10070000DA011F962C93B0968096405E5F4FB1E061
:10071000E33EFB0789F7F89463E271E083EE91E032
:10072000E3EAF2E05FEF4191DC013D91CD01DB01B5
:100730002D91BD0155B958B95BB90000000000000A
:10074000000025B938B94BB90000000000000000D6
:100750000000000015B818B81BB8B3E0E336FB077B
:1007600011F7789464EF71E080E090E00E949B00C4
:1007700043EA52E083EE91E0E3E2F1E01192DC0122
:100780001D92CD01DA011D92AD01B1E0E33EFB0700
:10079000A9F768EE73E080E090E00E949B00F89477
:1007A00063E271E083EE91E0E3EAF2E05FEF419112
:1007B000DC013D91CD01DB012D91BD0155B958B949
:1007C0005BB9000000000000000025B938B94BB942
:1007D00000000000000000000000000015B818B87C
:1007E0001BB8B3E0E336FB0711F7789481E793E099
:1007F0000E943401181619060CF095C181E793E0A8
:100800000E941201909122018F3F79F5911106C04B
:100810006091000181E793E00E946C011092220137
:100820000091630380916403F0916503EF2FE695D7
:10083000E695E695E23108F0E1E1F295FF0FF07EF2
:10084000F13C08F0F0EC802E912CA12CB12CC82E9C
:10085000D12CE12CF12C21E882169104A104B104E1
:1008600090F4412C512C320115C020916403209347
:1008700065032091630320936403809363039F5F68
:100880009093220150C12401350130E8431A5108E8
:100890006108710810E055E5C516D104E104F104C2
:1008A00068F5E82EF12C9701A3E0B0E00E94F50571
:1008B0002FEF30E040E050E0261B370B480B590B80
:1008C000C501B4010E94C305872E982EA92EBB2412
:1008D0005401992488249801D7010E94F5059B01B1
:1008E000AC01A3E0B0E00E940406BB27A92F982F1B
:1008F000872FB82FAA279927882760C08AEAC816A9
:10090000D104E104F10470F595E5C91AD108E108B4
:10091000F108A3E0B0E0A70196010E9404062FEFC2
:1009200030E040E050E0261B370B480B590BC50167
:10093000B4010E94C305872E982EA92EBB24B82C83
:10094000AA24992488249801A3E0B0E00E94F50528
:100950009B01AC01C701B6010E94C305DC01CB01BC
:1009600088272CC0AAEACA1AD108E108F108A3E036
:10097000B0E0A70196010E9404062FEF30E040E0AE
:1009800050E0261B370B480B590BC501B4010E94E0
:10099000C3054B015C0188249801A3E0B0E00E94EC
:1009A000F5059B01AC01C701B6010E94C305BB2739
:1009B000A92F982F872FDC0199278827880E991E49
:1009C000AA1EBB1E480C591C6A1C7B1C8F2F90E072
:1009D000EC3090F1EA5041E050E060E070E004C09B
:1009E000440F551F661F771FEA95D2F7342F4095A5
:1009F000FC01ED55FD4F8FE190E073016201082E7F
:100A000004C0F694E794D794C7940A94D2F720814F
:100A1000C0FE02C0232B01C02423208301973196FE
:100A20008F3FBFEF9B0749F7F89463E271E083EED5
:100A300091E0E3EAF2E057C0E63058F1E65041E0D9
:100A400050E060E070E004C0440F551F661F771F40
:100A5000EA95D2F7342F4095FC01ED51FE4F8FE11E
:100A600090E073016201082E04C0F694E794D794D5
:100A7000C7940A94D2F72081C0FE02C0232B01C084
:100A800024232083019731968F3F2FEF920749F758
:100A9000CBCF41E050E060E070E004C0440F551F50
:100AA000661F771FEA95D2F7342F4095FC01ED5D64
:100AB000FE4F8FE190E073016201082E04C0F694AE
:100AC000E794D794C7940A94D2F72081C0FE02C05D
:100AD000232B01C024232083019731968F3F5FEFA2
:100AE000950749F7A1CF4191DC013D91CD01DB0193
:100AF0002D91BD01BFEFB5B9B8B9BBB90000000079
:100B00000000000025B938B94BB900000000000012
:100B100000000000000015B818B81BB823E0E33649
:100B2000F20709F778940E94DB0160CEE1E7F3E079
:100B30001382128288EE93E0A0E0B0E08483958374
:100B4000A683B78385E091E09183808385EC90E074
:100B50009587848784EC90E09787868780EC90E087
:100B6000918B808B81EC90E0938B828B82EC90E078
:100B7000958B848B86EC90E0978B868B118E128EF2
:100B8000138E148E0895DB018F939F930E940406A9
:100B9000BF91AF91A29F800D911DA39F900DB29F19
:100BA000900D11240895A1E21A2EAA1BBB1BFD0172
:100BB0000DC0AA1FBB1FEE1FFF1FA217B307E4073C
:100BC000F50720F0A21BB30BE40BF50B661F771F94
:100BD000881F991F1A9469F7609570958095909574
:100BE0009B01AC01BD01CF010895A29FB001B39F4D
:100BF000C001A39F700D811D1124911DB29F700D26
:100C0000811D1124911D08950E94F505A59F900D49
:100C1000B49F900DA49F800D911D11240895EE0F97
:100C2000FF1F0590F491E02D099481E090E0F89485
:080C30000C941A06F894FFCFA2
:100C3800FF000000006C01D5000301B90134011266
:100C4800012601426F6172642049443A20000D0A6E
:020C580000009A
:00000001FF
