:100000000C9435000C945D000C945D000C945D0024
:100010000C945D000C945D000C945D000C945D00EC
:100020000C945D000C945D000C945D000C945D00DC
:100030000C945D000C945D000C945D000C945D00CC
:100040000C94F9010C945D000C9469020C94430229
:100050000C945D000C945D000C945D000C945D00AC
:100060000C945D000C945D00010711241FBECFEFBE
:10007000D8E0DEBFCDBF11E0A0E0B1E0E0E8F0E104
:1000800002C005900D92A033B107D9F721E0A0E39B
:10009000B1E001C01D92A63DB207E1F710E0C5E353
:1000A000D0E004C02197FE010E943308C433D10779
:1000B000C9F70E949B020C943E080C9400008E30FD
:1000C00008F08E508770806480937C0080917A0065
:1000D000806480937A0080917A0086FDFCCF8091C5
:1000E00078002091790090E0922B08953FB7F89422
:1000F0008091350190913601A0913701B09138017E
:1001000026B5A89B05C02F3F19F00196A11DB11D72
:100110003FBFBA2FA92F982F8827820F911DA11DAD
:10012000B11DBC01CD0142E0660F771F881F991FEA
:100130004A95D1F708958F929F92AF92BF92CF9236
:10014000DF92EF92FF926B017C010E9476004B01DF
:100150005C01C114D104E104F104F1F00E947600C5
:10016000DC01CB0188199909AA09BB09883E934093
:10017000A105B10570F321E0C21AD108E108F10828
:1001800088EE880E83E0981EA11CB11CC114D10416
:10019000E104F10419F7DDCFFF90EF90DF90CF90ED
:1001A000BF90AF909F908F900895CF92DF92EF9283
:1001B000FF920F931F93CF93DF936C017A018B0112
:1001C000C0E0D0E0CE15DF0581F0D8016D918D0142
:1001D000D601ED91FC910190F081E02DC6010995C9
:1001E000892B11F02196EECF7E01C701DF91CF91CF
:1001F0001F910F91FF90EF90DF90CF900895089599
:1002000080E090E00895FC01538D448D252F30E06F
:10021000842F90E0821B930B541710F0CF96089513
:1002200001970895FC01918D828D981761F0828D60
:10023000DF01A80FB11D5D968C91928D9F5F9F731A
:10024000928F90E008958FEF9FEF0895FC01918DBC
:10025000828D981731F0828DE80FF11D858D90E029
:1002600008958FEF9FEF0895FC01918D228D892FC6
:1002700090E0805C9F4F821B91098F7399270895AE
:1002800089E391E00E94340121E0892B09F420E008
:10029000822F0895FC01848DDF01A80FB11DA35AA0
:1002A000BF4F2C91848D90E001968F739927848F96
:1002B000A689B7892C93A089B1898C9183708064B9
:1002C0008C93938D848D981306C00288F389E02D5A
:1002D00080818F7D80830895EF92FF920F931F930B
:1002E000CF93DF93EC0181E0888F9B8D8C8D9813E9
:1002F00005C0E889F989808185FD26C0F62E0B8D21
:1003000010E00F5F1F4F0F731127E02E8C8DE81246
:100310000CC00FB607FCFACFE889F989808185FF08
:10032000F5CFCE010E944A01F1CF8B8DFE01E80F7F
:10033000F11DE35AFF4FF0829FB7F8940B8FEA89C3
:10034000FB89808180620AC09FB7F894EE89FF899B
:100350006083E889F98980818370806480839FBF8E
:1003600081E090E0DF91CF911F910F91FF90EF908E
:100370000895CF93DF93EC01888D8823C9F0EA8933
:10038000FB89808185FD05C0A889B9898C9186FD8E
:100390000FC00FB607FCF5CF808185FFF2CFA8898B
:1003A000B9898C9185FFEDCFCE010E944A01E7CF3C
:1003B000DF91CF91089580E090E0892B29F00E9491
:1003C000400181110C9400000895009769F0FC0130
:1003D00001900020E9F73197AF01481B590BBC0190
:1003E00089E391E00C94D50080E090E008950E94AC
:1003F00039081F920F920FB60F9211242F933F933B
:100400008F939F93AF93BF9380913101909132016D
:10041000A0913301B09134013091300123E0230FDA
:100420002D3720F40196A11DB11D05C026E8230F2C
:100430000296A11DB11D209330018093310190934C
:100440003201A0933301B093340180913501909132
:100450003601A0913701B09138010196A11DB11D5F
:100460008093350190933601A0933701B093380102
:10047000BF91AF919F918F913F912F910F900FBEA0
:100480000F901F9018951F920F920FB60F92112484
:100490002F933F934F935F936F937F938F939F938C
:1004A000AF93BF93EF93FF9389E391E00E944A01DA
:1004B000FF91EF91BF91AF919F918F917F916F913C
:1004C0005F914F913F912F910F900FBE0F901F9012
:1004D00018951F920F920FB60F9211242F938F939E
:1004E0009F93EF93FF93E0914901F0914A0180813E
:1004F000E0914F01F091500182FD12C090818091F6
:1005000052018F5F8F7320915301821751F0E09158
:100510005201F0E0E75CFE4F958F8093520101C0DD
:100520008081FF91EF919F918F912F910F900FBE3E
:100530000F901F901895CF93DF93CDB7DEB7A49798
:100540000FB6F894DEBF0FBECDBF789484B582603D
:1005500084BD84B5816084BD85B5826085BD85B567
:10056000816085BD80916E00816080936E001092E5
:100570008100809181008260809381008091810060
:1005800081608093810080918000816080938000F1
:100590008091B10084608093B1008091B00081604F
:1005A0008093B00080917A00846080937A0080917B
:1005B0007A00826080937A0080917A0081608093D3
:1005C0007A0080917A00806880937A001092C1004E
:1005D0008FEF84B987B98AB9E0914901F0914A0156
:1005E00082E08083E0914501F09146011082E09124
:1005F0004701F09148018FEC808310925101E09106
:100600004D01F0914E0186E08083E0914B01F09125
:100610004C01808180618083E0914B01F0914C011D
:10062000808188608083E0914B01F0914C01808152
:1006300080688083E0914B01F0914C0180818F7D37
:10064000808386E191E00E94E50184E10E945F00E1
:10065000883C910548F0811522E0920738F08C39EA
:10066000934030F422E005C020E003C021E001C047
:1006700023E0122F110F110F85E10E945F00883CCB
:10068000910548F0811542E0940738F08C39934089
:1006900030F422E005C020E003C021E001C023E0E7
:1006A000210F30E040E050E019A28E010F5D1F4F96
:1006B000EAE0CE2ED12CE12CF12CCA01B901A70120
:1006C00096010E940208605DF80162938F01211576
:1006D00031054105510589F7CF010E94E5018DE201
:1006E00091E00E94E50184E10E945F00BC01990F46
:1006F000880B990B611571058105910511F00E9418
:10070000C707412C512C3201439410E00FEF0E9497
:10071000790724E030E040E050E00E94D007262E28
:100720000E94790724E030E040E050E00E94D007CA
:100730007301620104C0CC0CDD1CEE1CFF1C6A9529
:10074000D2F76CE0862E912CF12CD12CE12C0E945A
:10075000790722E130E040E050E00E94D0076630A7
:1007600058F4D301C201062E04C0880F991FAA1F96
:10077000BB1F0A94D2F7E82A8AEF860F863060F40E
:100780008AEF860FA301920104C0220F331F441F7A
:10079000551F8A95D2F7D22A84EF860F863058F4F7
:1007A0006A50D301C20104C0880F991FAA1FBB1F42
:1007B0006A95D2F7F82A31E0831A910841F6812C24
:1007C000912C54014C2D4170342E5C2D52705AA343
:1007D0006C2D64706BA38C2D88708CA3211005C0C8
:1007E000B82DAA279927882718C0E1E02E1204C047
:1007F000D4019927882711C0F2E02F1205C0BA2D25
:10080000A92D982D882709C023E0221621F080E029
:1008100090E0DC0102C0D501C401F89420E221502F
:1008200010F420E25EC0332019F1AC01BD01022EAC
:1008300004C076956795579547950A94D2F740FF7F
:1008400017C03E2D4D2D5F2D05B908B90BB900001D
:1008500000000000000035B948B95BB90000000095
:10086000000000000000000015B818B81BB8D7CF72
:1008700005B908B90BB9000000000000000015B967
:1008800018B91BB9000000000000000000000000C3
:1008900015B818B81BB8C3CF6AA1662331F1AC01F3
:1008A000BD01022E04C076956795579547950A9429
:1008B000D2F740FF1AC0EE2DFD2D3F2D05B908B926
:1008C0000BB90000000000000000E5B9F8B93BB921
:1008D00000000000000000000000000015B818B87B
:1008E0001BB82150C8F620E239C005B908B90BB9C8
:1008F000000000000000000015B918B91BB9000085
:100900000000000000000000000015B818B81BB877
:10091000E8CF4BA1442331F1AC01BD01022E04C04C
:1009200076956795579547950A94D2F740FF1AC078
:100930005E2D6D2DEF2D05B908B90BB90000000033
:100940000000000055B968B9EBB9000000000000D4
:1009500000000000000015B818B81BB82150C8F6F8
:1009600020E239C005B908B90BB900000000000049
:10097000000015B918B91BB9000000000000000004
:100980000000000015B818B81BB8E8CFFCA1FF2381
:1009900041F1AC01BD01022E04C0769567955795D3
:1009A00047950A94D2F740FF1CC03E2D4D2D5F2D78
:1009B00005B908B90BB9000000000000000035B906
:1009C00048B95BB900000000000000000000000012
:1009D00015B818B81BB82150C8F620E23C2D30716C
:1009E00038C005B908B90BB90000000000000000CC
:1009F00015B918B91BB90000000000000000000084
:100A0000000015B818B81BB8E6CF332331F1AC019C
:100A1000BD01022E04C076956795579547950A94B7
:100A2000D2F740FF1AC06E2DED2DFF2D05B908B984
:100A30000BB9000000000000000065B9E8B9FBB97F
:100A400000000000000000000000000015B818B809
:100A50001BB82150D0F681E214C005B908B90BB912
:100A6000000000000000000015B918B91BB9000013
:100A70000000000000000000000015B818B81BB806
:100A8000E8CF8150A1F005B908B90BB9000000000A
:100A90000000000015B918B91BB9000000000000E3
:100AA00000000000000015B818B81BB8EACF789411
:100AB00065E070E080E090E00E949B002FEF821ADA
:100AC000920AA20AB20A30E483169104A104B10486
:100AD00009F084CE6AEF70E080E090E00E949B0015
:100AE0004C2D4170342E5C2D52705AA36C2D6470C5
:100AF0006BA38C2D88708CA3211005C0B82DAA275C
:100B00009927882718C0E1E02E1204C0D401992744
:100B1000882711C0F2E02F1205C0BA2DA92D982DFB
:100B2000882709C023E0221621F080E090E0DC0154
:100B300002C0D501C401F89420E2215010F420E253
:100B40005EC0332019F1AC01BD01022E04C07695C0
:100B50006795579547950A94D2F740FF17C03E2DE9
:100B60004D2D5F2D05B908B90BB90000000000003C
:100B7000000035B948B95BB9000000000000000072
:100B80000000000015B818B81BB8D7CF05B908B9D0
:100B90000BB9000000000000000015B918B91BB91E
:100BA00000000000000000000000000015B818B8A8
:100BB0001BB8C3CF6AA1662331F1AC01BD01022E7F
:100BC00004C076956795579547950A94D2F740FFEC
:100BD0001AC0EE2DFD2D3F2D05B908B90BB9000047
:100BE000000000000000E5B9F8B93BB900000000C2
:100BF000000000000000000015B818B81BB8215014
:100C0000C8F620E239C005B908B90BB900000000E8
:100C10000000000015B918B91BB900000000000061
:100C200000000000000015B818B81BB8E8CF4BA1B1
:100C3000442331F1AC01BD01022E04C076956795C5
:100C4000579547950A94D2F740FF1AC05E2D6D2D37
:100C5000EF2D05B908B90BB9000000000000000035
:100C600055B968B9EBB900000000000000000000B1
:100C7000000015B818B81BB82150C8F620E239C0DA
:100C800005B908B90BB9000000000000000015B953
:100C900018B91BB9000000000000000000000000AF
:100CA00015B818B81BB8E8CFFCA1FF2341F1AC017F
:100CB000BD01022E04C076956795579547950A9415
:100CC000D2F740FF1CC03E2D4D2D5F2D05B908B950
:100CD0000BB9000000000000000035B948B95BB94D
:100CE00000000000000000000000000015B818B867
:100CF0001BB82150C8F620E23C2D307138C005B930
:100D000008B90BB9000000000000000015B918B9BF
:100D10001BB900000000000000000000000015B832
:100D200018B81BB8E6CF332331F1AC01BD01022E58
:100D300004C076956795579547950A94D2F740FF7A
:100D40001AC06E2DED2DFF2D05B908B90BB90000A5
:100D500000000000000065B9E8B9FBB90000000020
:100D6000000000000000000015B818B81BB82150A2
:100D7000D0F681E214C005B908B90BB90000000033
:100D80000000000015B918B91BB9000000000000F0
:100D900000000000000015B818B81BB8E8CF81505B
:100DA000A1F005B908B90BB900000000000000006F
:100DB00015B918B91BB900000000000000000000C0
:100DC000000015B818B81BB8EACF789465E070E059
:100DD00080E090E00E949B0021E0821A9108A10827
:100DE000B1083FEF83169306A306B30609F084CE3D
:100DF00062E370E080E090E00E949B000E94DB01D3
:100E000086CCE9E3F1E01382128288EE93E0A0E061
:100E1000B0E084839583A683B78388E091E09183D3
:100E2000808385EC90E09587848784EC90E09787B9
:100E3000868780EC90E0918B808B81EC90E0938BA7
:100E4000828B82EC90E0958B848B86EC90E0978B84
:100E5000868B118E128E138E148E08958F929F9210
:100E6000AF92BF92CF92DF92EF92FF92CF93DF9338
:100E7000EC01688179818A819B8161157105810509
:100E8000910521F464E279ED8BE597E02DE133EFF4
:100E900041E050E00E94D00749015A019B01AC019A
:100EA000A7EAB1E40E94EF076B017C01ACEEB4EF5E
:100EB000A50194010E94FD07DC01CB018C0D9D1D55
:100EC000AE1DBF1DB7FF03C00197A109B0488883BD
:100ED0009983AA83BB83BC01CD019F77DF91CF911A
:100EE000FF90EF90DF90CF90BF90AF909F908F904A
:100EF00008958F929F92AF92BF92CF92DF92EF921E
:100F0000FF92609100017091010180910201909126
:100F10000301611571058105910521F464E279ED04
:100F20008BE597E02DE133EF41E050E00E94D007E0
:100F300049015A019B01AC01A7EAB1E40E94EF0705
:100F40006B017C01ACEEB4EFA50194010E94FD079A
:100F5000DC01CB018C0D9D1DAE1DBF1DB7FF03C075
:100F60000197A109B0488093000190930101A093DB
:100F70000201B0930301BC01CD019F77FF90EF9078
:100F8000DF90CF90BF90AF909F908F900895609327
:100F90000001709301018093020190930301089571
:100FA000052E97FB1EF400940E94E70757FD07D01B
:100FB0000E94020807FC03D04EF40C94E7075095FA
:100FC0004095309521953F4F4F4F5F4F0895909535
:100FD0008095709561957F4F8F4F9F4F08950E9428
:100FE0002408A59F900DB49F900DA49F800D911D86
:100FF00011240895B7FF0C94EF070E94EF07821B9E
:10100000930B0895A1E21A2EAA1BBB1BFD010DC074
:10101000AA1FBB1FEE1FFF1FA217B307E407F507A8
:1010200020F0A21BB30BE40BF50B661F771F881F84
:10103000991F1A9469F760957095809590959B011A
:10104000AC01BD01CF010895A29FB001B39FC001C3
:10105000A39F700D811D1124911DB29F700D811DE4
:101060001124911D0895EE0FFF1F0590F491E02DBE
:10107000099481E090E0F8940C943E08F894FFCF36
:1010800001000000000000006C01D5000301B9015F
:1010900034011201260148656C6C6F20546573742D
:1010A0002E20426F6172642049443A20000D0A00EC
:00000001FF
